:030000000200A754
:0C00A700787FE4F6D8FD7581150200EEAC
:0A019600080A40D8FD0E1D1E1C389B
:100133001201A1E4F508F509E4F512F513E5132519
:1001430009240AF8E6FD7C00AF13AE1212017A050A
:1001530013E51370020512C39408E51264809480BA
:1001630040DB0509E50970020508D39400E508643E
:0701730080948040C380BCB2
:0501A100C2B4C2B5224A
:10000300AB05AA04A907E4F514F51574807E00A8CE
:1000130015088006CEA2E713CE13D8F8FFE9FDEF4B
:100023005D24FF92B4EBF4FFEF30E05EE515451479
:100033007004A2B492A7E515640145147004A2B438
:1000430092A6E515640245147004A2B492A5E515C1
:10005300640345147004A2B492A4E5156404451422
:100063007004A2B492A3E515640545147004A2B408
:1000730092A2E515640645147004A2B492A1E51595
:10008300640745147004A2B492A0D2B6C2B6051593
:10009300E5157002051464084514600302000ED2CE
:0400A300B5C2B5220B
:10017A008F82AF057D017C00120003AF827480A8D4
:0C018A0007088002C313D8FCF4F58022A3
:1000B300020133E493A3F8E493A34003F68001F22F
:1000C30008DFF48029E493A3F85407240CC8C3334E
:1000D300C4540F4420C8834004F456800146F6DF1D
:1000E300E4800B0102040810204080900196E47E16
:1000F300019360BCA3FF543F30E509541FFEE49312
:10010300A360010ECF54C025E060A840B8E493A3D8
:10011300FAE493A3F8E493A3C8C582C8CAC583CA03
:10012300F0A3C8C582C8CAC583CADFE9DEE780BEBB
:0101A000005E
:00000001FF
