:0300000002011CDE
:0C011C00787FE4F6D8FD7581090200A789
:10000300AB05AA04A907E4F508F50974807E00A8E6
:1000130009088006CEA2E713CE13D8F8FFE9FDEF57
:100023005D24FF92B4EBF4FFEF30E05EE509450891
:100033007004A2B492A7E509640145087004A2B450
:1000430092A6E509640245087004A2B492A5E509E5
:10005300640345087004A2B492A4E5096404450846
:100063007004A2B492A3E509640545087004A2B420
:1000730092A2E509640645087004A2B492A1E509B9
:10008300640745087004A2B492A0D2B6C2B60509AB
:10009300E5097002050864084508600302000ED2F2
:0400A300B5C2B5220B
:0400FC007C007E0006
:100100008F82AF057D017C00120003AF827480A84E
:0C01100007088002C313D8FCF4F580221D
:1000A700C2B4C2B57D407C00E4FFFE1201007DD8DA
:1000B7007F011200FC7DFD7F021200FC7D0E7C009B
:1000C7007F037E001201007D1D7C007F047E0012ED
:1000D70001007D1E7C007F057E001201007D1C7CD7
:1000E700007F067E001201007D387C007F077E00BE
:0500F70012010080AFC2
:00000001FF
